:100000000C943E020C9466020C9466020C946602F8
:100010000C9466020C9466020C9466020C946602C0
:100020000C9466020C9466020C9450180C94DF1623
:100030000C9466020C9466020C9466020C946602A0
:100040000C9466020C9466020C9466020C94660290
:100050000C9466020C9466020C9466020C94701167
:100060000C9466020C9466020C9466020C94660270
:100070000C9466020C9466020C9466020C94660260
:100080000C9466020C9466020C9466020C94660250
:100090000C94DA0B0C9466020C9466020C946602C3
:1000A0000C9466020C9466020C946602011903001B
:1000B000E10300100400100400E103001204001228
:1000C00003000704000703000804000803000F04EE
:1000D000000F03002C04002C0264030027040027F7
:1000E00003001E04001E004900001E001F00200027
:1000F000210022490000E000E40000002300240069
:100100002500260027440200350014001A000800CC
:10011000150017002B002A002C0028001C001800D6
:100120000C00120013002E004B0004001600070004
:1001300009000A002900E300E60000000B000D00A2
:100140000E000F00330034004E001D001B0006009F
:10015000190005444C00E100E5444C00110010007A
:100160003600370038002D0000003A003B003C000C
:100170003D003E000000E000E40000003F004000C1
:10018000410042FFFF0000002B50125001000050C0
:10019000255029000050115013000042CD082F08AF
:1001A00030002F00304182004A5004500250085065
:1001B00026502A42B500E300E6004C0050005100F2
:1001C00052004F00440045004D001D001B0006007A
:1001D000195060FFFF00E100E5FFFF42EA42E9003D
:1001E000F100F200310831FFFFFFFFFFFFFFFFFFCB
:1001F000FFFFFFFFFFFFFFFFFFFFFFFFFF005F00AD
:100200006000610056FFFFFFFFFFFFFFFFFFFFFFE2
:10021000FFFFFF442BFFFFFFFF442BFFFF005C00AD
:100220005D005E0057FFFFFFFFFFFFFFFFFFFFFFC7
:10023000FFFFFFFFFFFFFFFFFFFFFFFFFF00590072
:100240005A005B002E0034FFFFFFFFFFFFFFFFFFA0
:10025000FFFFFFFFFFFFFFFFFFFFFFFFFF00620049
:100260006300550054002805010902A10185070516
:100270000919012908150025019508750181020554
:10028000010930093116000026FF7F7510950281A3
:100290000209381581257F750895018106C0050C76
:1002A0000901A1018504150026FF0319002AFF0397
:1002B000950475108100C005010906A10185080596
:1002C0000719E029E71500250175019508810275D8
:1002D0000495018101190429311500250175019545
:1002E0002E81027501950181011933299B15002585
:1002F00001750195698102750195018101199D2999
:10030000DD15002501750195418102750295018178
:1003100001C000000000000000002A2B280000009F
:1003200000000000000000000000000000000000CD
:1003300000002C9EB4A0A1A2A434A6A7A5AE362D81
:100340003738271E1F20212223242526B333B62E1B
:10035000B7B89F8485868788898A8B8C8D8E8F908D
:100360009192939495969798999A9B9C9D2F313052
:10037000A3AD350405060708090A0B0C0D0E0F1076
:100380001112131415161718191A1B1C1DAFB1B032
:10039000B50005010902A101850105091901290816
:1003A0001500250195087501810205010930093103
:1003B00009381581257F750895038106C005010957
:1003C00080A1018505150026FF00190029FF950170
:1003D00075088100C0080B00020202010009040038
:1003E00000010202000005240010010524010101A2
:1003F00004240206052406000107058103100040BD
:1004000009040100020A0000000705020240000082
:100410000705830240000012010002EF02014009BB
:100420001201230001010203011201000200000079
:1004300040091201230001010203014B6579626F3B
:10044000617264696F004D6F64656C203031000427
:10045000030904007E026F0359046804FD040C05BF
:100460005705C60568064B07F408150B030E4E0E1C
:100470000B0F760FC00F69116D13FE0811241FBEFC
:10048000CFEFDAE0DEBFCDBF11E0A0E0B1E0ECE8F5
:10049000F2E302C005900D92A83CB107D9F725E020
:1004A000A8ECB1E001C01D92A43AB207E1F712E056
:1004B000CDE3D2E004C02197FE010E943319CA3275
:1004C000D107C9F70E940B190C9439190C9400003C
:1004D000813069F461FF0BC060FD09C064E171E027
:1004E0008CE395E00E94A2148CEA90E0089580E0ED
:1004F00090E008958AE092E00C94AA0420E040E0A5
:1005000064E688EE91E00E94780620E04EE164E621
:1005100083EE91E00E94780620E046E46AE58EEDE5
:1005200091E00E94780620E048EC60E089ED91E0DF
:100530000E94780628EC4EE160E084ED91E00E9494
:10054000780628EC40E060E08FEC91E00E947806AD
:1005500028E740E064E68AEC91E00E94780662E0D9
:1005600088EC91E00C94BD0563E08AE092E00E9483
:100570007B041F921F928DEE91E09F938F9381E3F6
:1005800095E09F938F9388EC91E09F938F938DE8F4
:1005900092E09F938F9380EA92E09F938F938BE8F2
:1005A00092E09F938F938AEC91E09F938F938FECCF
:1005B00091E09F938F9384ED91E09F938F9389EDCA
:1005C00091E09F938F938EED91E09F938F9383EEB5
:1005D00091E09F938F9388EE91E09F938F9386E9AC
:1005E00092E09F938F938AE092E09F938F930E9473
:1005F000D7048DB79EB780960FB6F8949EBF0FBEF6
:100600008DBF86E992E00C94BC0689E093E00C94DF
:100610001F09CF93803509F060C0C92F822F8270E7
:1006200094FF16C0692F6F7E2170882339F0211145
:1006300005C08FEE91E00E948A034DC0222309F489
:100640004AC0811148C08FEE91E00E94950343C0DB
:1006500095FD2AC020FF0CC081110AC0892F83702C
:1006600011F01092F001CC70B1F11092EF0133C093
:10067000882389F1C0FF02C04FEF03C0C1FF06C04D
:1006800041E060E08FEE91E00E942004C2FF03C0D1
:1006900040E06FEF04C0C3FF1EC040E061E08FEE9A
:1006A00091E00E94200417C08823A9F020FD13C008
:1006B00091FD02C060E001C064E0C6FB882780F9BC
:1006C000682BC3FD02C080E001C080E1682B8FEE83
:1006D00091E00E94B80380E090E0CF9108958AE312
:1006E00091E09093EE018093ED010895FC0110825A
:1006F0001182138212821582148217821682118649
:100700001086128680E095E00E945E0F88EA94E0F1
:100710000C94010ECF93DF93EC0180E095E00E94F2
:100720006B0F1A86DF91CF91089580E095E00C94CD
:10073000700F0F931F9336952795420F531F1695F1
:100740000795600F711F20E088EA94E01F910F91D8
:100750000C94D50DFC0111861086178216828FEF3E
:100760009FE7938382839583848381E082870895C2
:10077000EF92FF920F931F93CF93DF931F92CDB70A
:10078000DEB77C01FC018285811105C0C701698348
:100790000E94AA036981F70160FF02C0128629C086
:1007A0000281138116950795138302832481358175
:1007B000369527953583248361FD08C062FF06C006
:1007C00086819781820F931F9783868363FD09C07B
:1007D00064FF07C0F70180859185800F911F918785
:1007E0008087F7014681578160857185C7010E9426
:1007F00099030F90DF91CF911F910F91FF90EF9090
:10080000089567FD6095660F669FA0011124452F2E
:100810005527CA01880F991F840F951F649F900167
:10082000659F300D1124232F3327220F331F821B86
:10083000930B969587958E5F833308F082E3089536
:10084000FF920F931F93CF93DF93EC01062FF42EAB
:10085000662371F088818F3F11F08F5F88836881F4
:10086000CE010E940104282F02038001112402C03E
:1008700000E010E0FF2079F089818F3F11F08F5F59
:1008800089836981CE010E940104382F2F2D230313
:10089000A001112402C040E050E01A8620E0602F41
:1008A00080E095E0DF91CF911F910F91FF900C9424
:1008B0003D0F8FEE91E00C9476039A01462F682F3E
:1008C0008AEF91E00C9407088AEF91E00C942408D9
:1008D0008AEF91E00C94EA0780E8EFEAF3E0DF01A9
:1008E000982F1D929A95E9F7EBE0F2E0DF011D9257
:1008F0008A95E9F70895CF93C62F0FB6F894A89577
:1009000080916000886180936000109260000FBE4B
:1009100064E670E080E090E00E94EB1181ED94E0ED
:100920000E94DC0E8AEF91E00E94F10788EA92E0D3
:100930000E94F20680E090E00E941F0980E090E0B3
:100940000E943B096C2F8EEA93E00E940609CF912A
:100950000C940D0B0F931F93CF93DF938AEF91E0CD
:100960000E94EA0888EA92E00E941207CBE0D2E0F7
:100970008E01D801ED91FD918D01309719F080E045
:100980000995F7CF81ED94E00E94760E81ED94E019
:100990000E94D50EE991F991309719F081E00995FF
:1009A000F9CFDF91CF911F910F910C9464040F93B5
:1009B0001F93CF93DF93CDB7DEB789859A85DC018E
:1009C000ED91FC910190F081E02D0995FE013B969F
:1009D0008F010E5F1F4F80819181009749F0DC01EC
:1009E000ED91FC910190F081E02D0995F801F0CF97
:1009F000DF91CF911F910F9108958AE092E00C94BE
:100A00006C04089508950E944F07AB01682F88EA8F
:100A100092E00E94DE06089580E491E090938C02BB
:100A200080938B020895CF93DF93EC019D819431E5
:100A300018F49F5F9D832CC01D822B819C818A812D
:100A400040E050E060E0299F801911240E945D047D
:100A500040E050E060E08A810E945D049B818A81D1
:100A6000890F8A832FEF280F2F3310F091959B83E6
:100A700040E050E06FEF0E945D042B819C818A81F1
:100A80004FEF50E060E0299F801911240E945D041F
:100A9000DF91CF910895FC018EE491E091838083F2
:100AA000128281E0838385E08483158208958DE836
:100AB00092E00C944B05BC0188EA92E00E94C106CA
:100AC000809393028EE895E00C943B098091950207
:100AD0000E94790A811104C088EA92E00C948E0683
:100AE0000895CF93C0E040E050E060E08C2F0E947A
:100AF0005D04CF5FCC32B9F74FEF50E060E08C2F50
:100B00000E945D04CF5FC034B9F70E944F07AB016C
:100B1000682F8CE30E945D04CF910895882361F1D2
:100B2000809195020E94790A882391F09091940215
:100B300080919302981731F088EA92E00E94AA0609
:100B4000809394026091930288EA92E00E94A50645
:100B5000809195020E94790A81110EC088EA92E084
:100B60000E94AA0690919302891306C06091940294
:100B700088EA92E00C94A50608952CE531E0FC018A
:100B80003183208360939502089508958AE691E069
:100B900090939702809396020895CF93DF93EC0190
:100BA0008C819D81AE81BF818A309105A105B105FF
:100BB00044F40196A11DB11D8C839D83AE83BF8338
:100BC00021C01C821D821E821F8242E350E06FEF13
:100BD00070E08A819B810E947907AB01682F8A812E
:100BE0009B819C012F5F3F4F2F3F310518F43B83C2
:100BF0002A8304C08E5F91099B838A8388EA92E0EE
:100C00000E94DE06DF91CF9108951F93CF93DF936B
:100C1000EC014C815D816E817F814A305105610517
:100C200071054CF44F5F5F4F6F4F7F4F4C835D8377
:100C30006E837F8331C01C821D821E821F8210E062
:100C40008A819B81212F2695269530E1239F800D57
:100C5000911D11248F3F910510F08F5F910942E3A0
:100C600050E06FEF70E00E947907AB01682F812F91
:100C70000E945D041F5F103419F78A819B819C01DB
:100C80002F5F3F4F2F3F310518F43B832A8304C069
:100C90008E5F91099B838A83DF91CF911F91089585
:100CA000FC0188E791E09183808313821282148291
:100CB0001582168217820895FC0186E891E09183DF
:100CC00080831382128214821582168217820895FD
:100CD00080EA92E00E94500688E992E00C945C065B
:100CE000FC0124814381628188EA92E00C944607EA
:100CF000FC0184E991E091838083628343832483B0
:100D0000BF0188EA92E00C94C106FC0110AA11AA66
:100D100080E3DF011D928A95E9F70895DC01D19601
:100D20009C91D1979F5FD1969C93D197983118F061
:100D3000D1961C920895FD01E90FF11DE90FF11DF7
:100D400080819181892BA1F30895683110F4FC0111
:100D500061AB0895FC0181A90895DC01FC0190E0DC
:100D6000219131912617370719F4D1969C93089554
:100D70009F5F9831A9F70895BC0188EA92E00C942E
:100D8000AD06DC0120E030E04D915D91452B51F442
:100D9000A901440F551FFC01E40FF51F7183608307
:100DA000822F08952F5F3F4F2831310569F78FEF6C
:100DB0000895BC0188EA92E00C94C106CF92DF92BC
:100DC000EF92CF936A01E62EC0E06E2DA6018C2F24
:100DD0000E945D04CF5FC034C1F7CF91EF90DF90E8
:100DE000CF9008950F931F93CF93DF938C0140E032
:100DF00050E060E00E94DE06E801005D1F4F89912F
:100E00009991009739F0DC01ED91FC910280F3811A
:100E1000E02D0995C017D10791F7DF91CF911F9170
:100E20000F910895CF93DF93EC0198A989A99817A2
:100E3000B9F040E050E060E0CE010E94DE0689A9F2
:100E4000FE01E80FF11DE80FF11D808191810097EF
:100E500039F0DC01ED91FC910480F581E02D0995DC
:100E600089A9FE01E80FF11DE80FF11D8081918134
:100E7000009739F0DC01ED91FC910680F781E02DBF
:100E8000099589A988ABDF91CF910895542F422FFE
:100E90000E94DE06089588EA92E00C9485060E947E
:100EA000BA11CB016CE070E00E941F19862F67FD1C
:100EB0008095880F889FA0011124452F5527BA01DE
:100EC000660F771F640F751F849F9001859F300DFB
:100ED0001124832F9927880F991F681B790B76950A
:100EE00067956E5F21EB629FC001112470E0892F2E
:100EF00008950F931F93CF93DF936115710521F42C
:100F0000642F742F842F61C026E0289FD001299F71
:100F1000B00D11248B2F9927AE7FBB27EFEFF0E0A8
:100F2000EF01C61BD70BC49F9001C59F300DD49F06
:100F3000300D1124A69FE001A79FD00DB69FD00DC4
:100F40001124CD2FDD278F010C1B1D0B049FE00109
:100F5000059FD00D149FD00D11248F010A1B1B0B70
:100F6000069FD001079FB00D169FB00D11246B2F67
:100F70007727E61BF70BE49FD001E59FB00DF49FA8
:100F8000B00D112482309105A1F038F4009769F07A
:100F90000197B1F49D2F742F0AC08330910569F039
:100FA000049771F49B2F732F0EC0942F7B2F432F28
:100FB0000AC0932F742F4B2F06C0932F7D2F03C091
:100FC000942F732F4D2F642F892FDF91CF911F9175
:100FD0000F91089508953F9A479A08956E9A7698CA
:100FE0000895CF93DF93EC010E94EB07CE010E949E
:100FF000EE07188219821A821B821C821D821E82B1
:101000001F828CE08093B800DF91CF910895603209
:1010100050F470E0FB01EE0FFF1F6E0F7F1FFB010E
:10102000EC5BFC4F0DC0603470F470E060527109ED
:10103000FB01EE0FFF1F6E0F7F1FFB01E652FD4FFE
:10104000208331834283089584E493E00E94950DC8
:101050008AED92E00E94950D84E493E00E94950D44
:101060008AED92E00E94950D84E493E00E94950D34
:101070008AED92E00E94950D84E493E00E94950D24
:101080008AED92E00C94950DCF93DF93EC0188816B
:101090009981AA81BB8188879987AA87BB878C8120
:1010A0009D81AE81BF818C879D87AE87BF8784E499
:1010B00093E00E94220D882341F084E493E00E9493
:1010C000550D688379838A839B838AED92E00E9421
:1010D000220D882341F08AED92E00E94550D6C8329
:1010E0007D838E839F83DF91CF910895AF92BF92CE
:1010F000DF92EF92FF920F931F93CF93DF931F9294
:10110000CDB7DEB75C0130E0F12C87E0E82E0FE0D0
:1011100010E0D12ED30EF50180819181A281B3819F
:101120000D2C04C0B695A795979587950A94D2F78C
:101130008170282F220F80859185A285B3850D2C83
:1011400004C0B695A795979587950A94D2F78170B4
:10115000282B4E2D411B6F2D80E090E039830E949B
:101160009A09F50144815581668177810D2C04C06F
:1011700076956795579547950A94D2F74170242F35
:10118000220F448555856685778504C076956795D9
:1011900057954795DA94D2F74170242B402F411B85
:1011A0006F2D80E090E00E949A091F5F398118300E
:1011B00009F0AFCFF394385FF4E0FF12A9CF0F909E
:1011C000DF91CF911F910F91FF90EF90DF90BF9033
:1011D000AF900895CF93DF93EC010E944408CE01B5
:1011E000DF91CF910C94760860E084E493E00E9454
:1011F000080D63E08AED92E00C94080D8AED92E010
:101200000E94070D84E493E00C94070D80E008959C
:10121000EFEAF3E020E030E041915191481759079F
:1012200041F4220F331FF901E155FC4F71836083B4
:1012300008952F5F3F4F2034310571F70895BC01A9
:1012400080E090E00C940809EBE0F2E020E030E070
:10125000419151914817590741F4220F331FF90169
:10126000E55FFD4F7183608308952F5F3F4F20340A
:10127000310571F70895BC0180E090E00C942409D9
:10128000CF93DF93EC0183FF05C061EE81ED94E025
:101290000E94850EC0FF05C060EE81ED94E00E94C3
:1012A000850EC1FF05C062EE81ED94E00E94850EBF
:1012B000C2FF05C066EE81ED94E00E94850EC4FF7A
:1012C00005C063EE81ED94E00E94850E6D2F81EDE7
:1012D00094E0DF91CF910C94850ECF93DF93EC01D6
:1012E00083FF05C061EE81ED94E00E94AC0EC0FF6B
:1012F00005C060EE81ED94E00E94AC0EC1FF05C018
:1013000062EE81ED94E00E94AC0EC2FF05C066EE75
:1013100081ED94E00E94AC0EC4FF05C063EE81ED48
:1013200094E00E94AC0E6D2F81ED94E0DF91CF919F
:101330000C94AC0ECF92DF92EF92FF921F93CF935B
:10134000DF93D62F142FC22F27FD04C0642F8D2FBB
:101350000E94920A2FEAE22E23E0F22ED701ED91AD
:10136000FD917D012C2F412F6D2F309739F009957C
:10137000C12CD12C8C159D0589F747C00E94E20A2B
:10138000AC01009709F441C0652F46FF31C087FDCD
:101390003CC0C1FF3AC0C0FD38C083FF0DC080FF14
:1013A00034C088EA92E0DF91CF911F91FF90EF90D7
:1013B000DF90CF900C948E0681FF0CC070E08BEB19
:1013C00094E0DF91CF911F91FF90EF90DF90CF904D
:1013D0000C94350E80FF19C0652F8FE095E0DF91EA
:1013E000CF911F91FF90EF90DF90CF900C94A80FBA
:1013F000C1FF04C0CA010E94400907C0C0FF05C068
:10140000C7FF03C0CA010E946D09DF91CF911F91F0
:10141000FF90EF90DF90CF9008950F931F9340912E
:101420002F045091300460913104709132048FE1A7
:1014300090E08A019B01082E04C0369527951795E8
:1014400007950A94D2F700FD03C0019790F780E05A
:101450001F910F91089541E050E060E070E004C0FA
:10146000440F551F661F771F8A95D2F780912F046E
:1014700090913004A0913104B0913204482B592B43
:101480006A2B7B2B40932F045093300460933104DC
:1014900070933204089510922F0410923004109229
:1014A0003104109232040C942B0A41E050E060E0C9
:1014B00070E004C0440F551F661F771F8A95D2F74E
:1014C000409550956095709580912F0490913004CF
:1014D000A0913104B0913204482359236A237B231D
:1014E00040932F045093300460933104709332047E
:1014F00008950F931F9340912F04509130046091F1
:101500003104709132048A019B0104C036952795FD
:10151000179507958A95D2F7D901C80181701F9157
:101520000F910895BF92CF92DF92EF92FF920F93A7
:101530001F93CF93DF930091330410E03FE1B32E6C
:10154000E62EF12CC82ED12CCB2D0B2C000CDD0B54
:10155000C017D10714F18B2D0E94790A8823D1F08E
:10156000FE01EE0FFF1FEE0FFF1FEC0DFD1D94E0BF
:10157000EE0FFF1F9A95E1F7EE0DFF1DEE0FFF1F17
:10158000E951FF4F85919491BA948F3F2FEF9207C5
:1015900031F4DACF8FEF9FEFF7CF8FEF9FEFDF912F
:1015A000CF911F910F91FF90EF90DF90CF90BF9060
:1015B00008950E940D0A8F5F0C942B0A0E940D0A59
:1015C0000C94550A843441F5892F922F92708A32F7
:1015D000E0F08A522170992339F0211105C082323E
:1015E00071F08132A9F406C02223A1F0911112C03A
:1015F000823219F40E94DE0A0DC0813219F40E9471
:10160000D90A08C00E94550A05C0992319F020FF85
:101610000E942B0A80E090E00895CF93C82F0E948B
:101620004B0AC0933304CF91089580E00C940D0BC6
:101630001092A10481E080939F0410929E04589A16
:10164000599AE9EBF0E080818E7F808380818D7FE5
:10165000808388E48093B80085E48093BC0008957B
:10166000413208F043C09091A1049111FCCF91E068
:101670009093A10420939F042FEF209334041092A1
:101680007904240F209378049093A0049091A004EF
:10169000880F892B8093A00480919E04813061F48F
:1016A00010929E048091A0048093BB008091BC00A6
:1016B00083FDF8CF85EC01C085EE8093BC0080915E
:1016C000A1048130E1F380917904841710F44091F2
:1016D00079042AE734E0FB01D9018A2F821B8417A1
:1016E00018F48D918193F9CF842F089580E00895A7
:1016F0000F93413208F04AC09091A1049111FCCFA0
:1017000032E03093A10400939F043FEF3093340400
:101710001092790440937804FB016AE774E0DB01DE
:101720003A2F361B341718F431913D93F9CF1092AC
:10173000A0043091A004880F832B8093A004809193
:101740009E04813061F410929E048091A0048093E5
:10175000BB008091BC0083FDF8CF85EC01C085EE15
:101760008093BC00222321F08091A1048230D1F328
:1017700080913404803331F08F3F49F0803221F47E
:1017800092E005C093E003C094E001C091E0892F8E
:101790000F91089585ED8093BC008091BC0084FD7D
:1017A000FCCF1092A104089585EC8093BC001092A8
:1017B000A10408951F920F920FB60F9211242F9338
:1017C0003F934F935F936F937F938F939F93AF93C9
:1017D000BF93EF93FF938091B900887F803609F41F
:1017E0009EC078F5883209F45DC090F4803109F428
:1017F00056C038F4882309F4F5C0883009F44FC086
:10180000F5C0883109F44EC0803209F45FC0EEC0E3
:10181000803409F46AC058F4803309F457C088331F
:1018200009F0E4C0809334040E94D40BDFC08035FB
:1018300009F44FC0883509F45DC0883409F0D6C07A
:10184000D3C0883909F4C4C0A8F4883709F467C044
:1018500038F4883609F463C0803709F460C0C6C024
:10186000883809F4B5C0803909F45FC0803809F0C0
:10187000BDC05BC0803B09F483C038F4803A09F4F2
:1018800066C0883A09F47CC0B1C0803C09F4A4C0A9
:10189000883C09F4A1C0883B09F487C0A7C08091A7
:1018A000A00410C09091790480917804981770F585
:1018B000E091790481E08E0F80937904F0E0E6589E
:1018C000FB4F80818093BB0085EC83C08093340400
:1018D0008BC0E091790481E08E0F80937904809130
:1018E000BB00F0E0E658FB4F808390917904809133
:1018F00078046BC0E091790481E08E0F80937904C5
:101900008091BB00F0E0E658FB4F808380919F04FC
:1019100081116AC081E080939E0484EA5EC083E006
:101920008093A10410923504CFCF8091350480328A
:1019300008F04EC0E091350481E08E0F80933504AD
:101940008091BB00F0E0EA5CFB4F8083BDCF0E943A
:10195000D40B80913504803230F4E0913504F0E00E
:10196000EA5CFB4F10826091350470E0E0919A04CC
:10197000F0919B0486E394E009951092350436C0FB
:1019800084E08093A1041092570410925604E091D1
:101990009C04F0919D04099580915604811105C025
:1019A00081E08093560410925804E091570481E03E
:1019B0008E0F80935704F0E0E85AFB4F80818093AC
:1019C000BB009091570480915604981708F47CCF7F
:1019D00085E88093BC000AC085EC8093BC0010921F
:1019E000A10404C0109234040E94CA0BFF91EF912D
:1019F000BF91AF919F918F917F916F915F914F9127
:101A00003F912F910F900FBE0F901F901895089542
:101A1000FC01E859FF4F1082319610823797262F2C
:101A200030E0318320833297686570E07183608392
:101A3000809100019FEF980F9093000181110C9409
:101A4000180B08950F931F93CF93DF9300D000D00E
:101A50001F92CDB7DEB78C01FC01E05AFF4F21E0A9
:101A600045E0BE016F5F7F4F80810E94300B89810E
:101A7000813081F4F801EC59FF4F8A8180833196DF
:101A80008B81808331968C81808331968D81808398
:101A900081E001C080E00F900F900F900F900F90A9
:101AA000DF91CF911F910F910895FC01EC59FF4FE9
:101AB000608171818281938108950F93CF93DF9329
:101AC000CDB7DEB769970FB6F894DEBF0FBECDBFB6
:101AD00020E8260F2983DE01129628E1629FB001DB
:101AE000112420E030E0F901E60FF71FE80FF91F9D
:101AF00040814D932F5F3F4F28313105A1F7FC0105
:101B0000E05AFF4F00E021E049E1BE016F5F7F4FE7
:101B100080810E94780B69960FB6F894DEBF0FBEE5
:101B2000CDBFDF91CF910F910895CF93DF93EC015B
:101B3000C759DF4F688121E0260F28830E945D0D81
:101B40008881843009F41882DF91CF9108958091C3
:101B5000AD04811113C01092A3041092A20487E671
:101B600092E09093A5048093A40487E390E090937F
:101B7000A7048093A60481E08093AD040E94001125
:101B800062EA74E00C948F100F931F93CF93DF934E
:101B9000EB018A010E9400119801AE0167E0DF911C
:101BA000CF911F910F910C94AC10CF93DF9300D085
:101BB00000D000D0CDB7DEB7FC01718360835383C2
:101BC0004283348139837B836A835D834C832E8394
:101BD00046E050E0BE016F5F7F4F0E94C40D269625
:101BE0000FB6F894DEBF0FBECDBFDF91CF91089541
:101BF000FC011482428153816081718120E00C9448
:101C0000D50D0C94F80D88EA94E00C94A70D809102
:101C1000C304811113C01092B6041092B5048EE96A
:101C200092E09093B8048093B70489E190E0909398
:101C3000BA048093B90481E08093C3040E94001128
:101C400065EB74E00C948F100F931F93CF93DF9389
:101C5000EB018A010E9400119801AE0164E0DF915E
:101C6000CF911F910F910C94AC10FC0120E030E05B
:101C700041915191452B41F4220F331FFC01E20F9A
:101C8000F31F7183608305C02F5F3F4F2430310500
:101C900079F748E050E0BC010C94240E8BEB94E003
:101CA0000C94070EFC011382128222EA31E0318388
:101CB00020838091F204811113C01092CC04109201
:101CC000CB0487EB92E09093CE048093CD048BE518
:101CD00090E09093D0048093CF0481E08093F2044D
:101CE0000E9400116BEC74E00C948F10CF93DF9383
:101CF000EC010E940011AE014C5F5F4F2DE130E01E
:101D000068E0DF91CF910C94AC106E3D90F4262FDB
:101D1000269526952695FC01E20FF11D677081E05E
:101D200090E001C0880F6A95EAF79581892B858339
:101D30000DC0605E683068F421E030E001C0220F21
:101D40006A95EAF7FC013481232B248381E090E03B
:101D5000089580E090E008956E3D98F4262F269532
:101D600026952695FC01E20FF11D677081E090E059
:101D700001C0880F6A95EAF780959581892385834C
:101D80000EC0605E683070F421E030E001C0220FC8
:101D90006A95EAF72095FC0134812323248381E0AE
:101DA00090E0089580E090E0089504962DE1FC0114
:101DB00011922A95E9F70895CF93DF93EC010E94E1
:101DC000D50ECE01DF91CF910C94760ECF93DF9399
:101DD000EC01E62FF0E0E038F105C0F4EE5EFC4FD8
:101DE000649167FF03C08C8182608C836F77CE0122
:101DF0000E94850ECE010E94760ECE010E94D50E65
:101E0000CE010E94760E81E090E002C080E090E07A
:101E1000DF91CF91089581ED94E00C94520E809162
:101E20000105811113C01092FB041092FA0482E99B
:101E300093E09093FD048093FC048BE290E09093F8
:101E4000FF048093FE0481E0809301050E9400114D
:101E50006AEF74E00C948F100F931F93CF93DF936E
:101E6000EB018A010E9400119801AE0161E0DF914F
:101E7000CF911F910F910C94AC10CF93DF9300D0B2
:101E800000D0CDB7DEB7FC01308139836A834B8344
:101E90002C8344E050E0BE016F5F7F4F0E942C0F07
:101EA0000F900F900F900F90DF91CF910895FC014C
:101EB000108220E040E060E00C943D0F0C94570F3E
:101EC000FC012081621731F0608320E040E060E097
:101ED0000C943D0F0895FC012081622B0C94600F3F
:101EE0006095FC01208162230C94600F80E095E0F6
:101EF0000C940F0F80911005811113C010920A05E8
:101F0000109209058DEB93E090930C0580930B05DF
:101F100088E190E090930E0580930D0581E0809319
:101F200010050E94001169E075E00C948F100F936A
:101F30001F93CF93DF93EB018A010E940011980158
:101F4000AE0165E0DF91CF911F910F910C94AC1021
:101F5000CF93DF931F92CDB7DEB76983633829F43F
:101F600089E995E00E94EE1807C041E050E0BE010B
:101F70006F5F7F4F0E94970F0F90DF91CF91089571
:101F80008FE095E00C947A0FDC01FB0188E48083FC
:101F900089E4818384E482831D969C911D979F70C0
:101FA0009F5B93831D968D919C911E9724E096953F
:101FB00087952A95E1F78F708F5B848385E008957C
:101FC000CF93DF93CDB7DEB769970FB6F894DEBF36
:101FD0000FBECDBFFC01DB018C918F5F8C93BE01E6
:101FE0006F5F7F4F89E1DB011D928A95E9F729E058
:101FF000298384E08A8391E09D8383E08E832A870E
:1020000021E22B879C879D879F8722E2288B27E0F0
:102010002B8B25E02C8B8E8B20E430E0388F2F8BA0
:10202000998F82818B8395858685998B8A8B838115
:1020300080688D8B49E150E080E00E9485166996AA
:102040000FB6F894DEBF0FBECDBFDF91CF910895DC
:10205000DC01FB0112968C91129790E0248135816E
:1020600082179307D1F491818081813A31F481E024
:10207000913091F0933089F411C0813271F49B302A
:1020800021F482811F968C9305C09A3031F48281AD
:1020900050968C9381E00895089580E00895EF9222
:1020A000FF920F931F93CF93DF93FB012081213881
:1020B00051F52381223239F5DC0112962C9130E062
:1020C0004481558142175307F1F4EC010B851C85BF
:1020D000E12CF12C0115110591F0F8014481558195
:1020E0006281738180E80E9485168F3FFFEF9F0712
:1020F00069F0E80EF91ED8010D911C91EBCF81E03B
:102100008F87C70105C080E090E002C08FEF9FEF8E
:10211000DF91CF911F910F91FF90EF900895FC01F7
:10212000A385B485109719F47487638709C08D91CE
:102130009C911197009711F0DC01F9CF6D937C937E
:1021400025853685DB0114968D919C911597820F1C
:10215000931F968785870895AF92BF92CF92DF92A3
:10216000EF92FF920F931F93CF93DF931F92CDB700
:10217000DEB77C0169836A01590141E050E0BE018C
:102180006F5F7F4FFC0183810E94E4158C0197FDF6
:102190000BC0F7018381A501B60180640E94E4159C
:1021A00097FD02C0800F911F0F90DF91CF911F917B
:1021B0000F91FF90EF90DF90CF90BF90AF90089578
:1021C000CF93DF93EC0181E08C838D839E01265FAA
:1021D0003F4F3F832E83198618862AEA31E03983E0
:1021E00028831C861B861E861D868F87888B81EC24
:1021F0008A870E944E14BE01DF91CF910C94071480
:1022000080912905811107C088E195E00E94E010C6
:1022100081E08093290588E195E0089587E591E1C3
:102220000C941F091F93CF93DF93EB01209709F4C0
:102230003AC010E0CE010196FE0124912230A1F0B7
:1022400038F4213009F02FC02296FC01149124C0EB
:10225000233099F0243039F5FC018491FE01329647
:102260009491239621E810C02296FC01649170E0BD
:1022700080E090E00E94EB110FC0FC018491FE0110
:1022800032969491239622E84FEF6FEF0E949A09BD
:1022900081ED94E00E94760E612F70E080E090E086
:1022A0000E94EB11C7CFDF91CF911F910895803627
:1022B00079F421FF0BC020FD09C0622F892F0E94F5
:1022C0006802BC0181E395E00E94121180E090E079
:1022D000089586EB91E0909332058093310508953F
:1022E0001F920F920FB60F9211242F933F938F934B
:1022F0009F93AF93BF938091340590913505A09142
:102300003605B09137053091330523E0230F2D3783
:1023100020F40196A11DB11D05C026E8230F0296E9
:10232000A11DB11D2093330580933405909335058D
:10233000A0933605B0933705809138059091390503
:10234000A0913A05B0913B050196A11DB11D809366
:10235000380590933905A0933A05B0933B05BF919A
:10236000AF919F918F913F912F910F900FBE0F9042
:102370001F9018952FB7F89460913405709135052A
:1023800080913605909137052FBF08953FB7F89497
:102390008091380590913905A0913A05B0913B059F
:1023A00026B5A89B05C02F3F19F00196A11DB11DB0
:1023B0003FBFBA2FA92F982F8827820F911DA11DEB
:1023C000B11DBC01CD0142E0660F771F881F991F28
:1023D0004A95D1F708958F929F92AF92BF92CF9274
:1023E000DF92EF92FF926B017C010E94C6114B01BC
:1023F0005C01C114D104E104F10401F10E941E1931
:102400000E94C611DC01CB0188199909AA09BB09F0
:10241000883E9340A105B10560F321E0C21AD108BE
:10242000E108F10888EE880E83E0981EA11CB11C1B
:10243000C114D104E104F10419F7DBCFFF90EF9050
:10244000DF90CF90BF90AF909F908F900895789439
:1024500084B5826084BD84B5816084BD85B58260A9
:1024600085BD85B5816085BDEEE6F0E08081816047
:102470008083E1E8F0E01082808182608083808147
:1024800081608083E0E8F0E0808181608083E1E921
:10249000F0E0808182608083808181608083E0E9D8
:1024A000F0E0808181608083E1ECF0E080818460F5
:1024B0008083808182608083808181608083E3EC7F
:1024C000F0E0808181608083E0ECF0E080818260D8
:1024D0008083E2ECF0E0808181608083EAE7F0E0D5
:1024E000808184608083808182608083808181603C
:1024F00080838081806880830895CF93DF931F92CB
:10250000CDB7DEB76983DC01ED91FC910280F381E8
:10251000E02D41E050E0BE016F5F7F4F09950F90C5
:10252000DF91CF910895CF93DF93EC018C859D854A
:1025300097FF05C082E00E94B3159D878C878C852C
:102540009D85DF91CF91089583E00C944618FC019E
:102550008485958597FD06C082E00E945D1590E018
:102560000196089582E00E945D1590E00895FC01B7
:102570008485958597FD05C02FEF3FEF358724872C
:10258000089582E00C94B315CF93DF93EC01809112
:102590000C01882331F083E00E94E4151816190617
:1025A00034F081E090E09B838A8380E090E0DF91CB
:1025B000CF910895FC0190819E5F908342E450E0AA
:1025C00065ED73E080E80C948516FC0181819081B3
:1025D000913A59F4813209F048C047E050E065E093
:1025E00071E080E00E94851676C09132F1F5833269
:1025F00091F49381892F90E0982F88272281822B54
:10260000A0E0B0E08093010190930201A093030148
:10261000B093040160C0803239F467E070E085E077
:1026200091E00E94AC1606C0823209F054C082814B
:1026300080930C0180918C05882319F0EEEFFAE06D
:1026400002C0E0E0F8E08091050190910601A091C0
:102650000701B0910801803B9440A105B10539F410
:1026600080910C0180FF1FC002C080E008950FB66A
:10267000F894A89580916000886180936000109222
:1026800060000FBEA895EE3F8AE0F80739F0809110
:10269000FE0A9091FF0A918380831DC01092FF0A69
:1026A0001092FE0A18C0EE3F2AE0F20731F0808156
:1026B00091819093FF0A8093FE0A87E797E79183C1
:1026C00080839BE088E10FB6F894A8958093600022
:1026D0000FBE9093600081E00895ECE3F5E0138273
:1026E000128288EE93E0A0E0B0E084839583A68315
:1026F000B7838CEB91E0918380838FEF9FEF958779
:1027000084870895EF92FF920F931F93CF93DF93E7
:102710007B01FC01C281D38100E010E0209781F0B1
:10272000E881F9810280F381E02DB701CE0109959E
:1027300097FD08C0080F191F0884D985C02DEECF5A
:10274000C80102C08FEF9FEFDF91CF911F910F91D2
:10275000FF90EF9008950F931F93CF93DF938B011A
:10276000FC01C281D381209771F0E881F981048056
:10277000F581E02DB801CE010995009731F4088468
:10278000D985C02DF0CF80E090E0DF91CF911F91EF
:102790000F9108950F931F93CF93DF938B01FC014B
:1027A000C281D381209771F0E881F9810680F78199
:1027B000E02DB801CE010995080F111D0884D985B7
:1027C000C02DF0CFF8011082DF91CF911F910F91B2
:1027D00008950F931F93CF93DF938B01FC01C28168
:1027E000D381209771F0E881F9810190F081E02D8B
:1027F000B801CE010995811105C00884D985C02D85
:10280000F0CF80E0DF91CF911F910F910895CF938A
:10281000DF93FC01DB01218114968C91149790E0E9
:10282000820F911D0897B4F5C281D381209719F4C6
:102830007383628308C088859985009711F0EC0145
:10284000FACFB987A887808112968C9312978181DD
:1028500013968C931397908115968C911597890FE9
:10286000808380E014969C911497891788F41696BB
:10287000CD91DC911797C80FD11D9881C181D0E00F
:10288000C35FDE4F988391819F5F91838F5FEACF13
:1028900081E001C080E0DF91CF91089580919105A2
:1028A00081110DC082E080938D0584E080938E05B8
:1028B0001092900510928F0581E0809391058DE82C
:1028C00095E00895CF92DF92EF92FF920F931F93BE
:1028D000CF93DF936C017A018B01C0E0D0E0CE157D
:1028E000DF0589F0D8016D918D01D601ED91FC9144
:1028F0000190F081E02DC6010995892B11F47E012C
:1029000002C02196ECCFC701DF91CF911F910F91AB
:10291000FF90EF90DF90CF9008956115710579F0E9
:10292000FB0101900020E9F73197AF01461B570BDF
:10293000DC01ED91FC910280F381E02D099480E0AF
:1029400090E008950C948D14615030F02091F100C6
:10295000FC0120830196F8CF289884E68093A20595
:10296000089540919D0550919E0520919B053091C1
:102970009C0542175307B4F49091E8009570E1F379
:102980009091E80092FD19C08093F10080919D051F
:1029900090919E0501968F739927892B19F48EEFDC
:1029A0008093E80080919D0590919E0501969093FB
:1029B0009E0580939D0581E0089580E00895CF9263
:1029C000DF92EF92FF920F931F93CF93DF931F92AB
:1029D000CDB7DEB7182F062FE42E862F880F8E5F17
:1029E00099830E94B11483E00E94B114F12EC12E8C
:1029F0009981D92E8C2D8F19801798F4F601E7FE56
:102A000002C0849101C080810E94B114182F80E01F
:102A10000E94B1148123FFEFCF1ADF0A8111EACFA0
:102A200001C081E00F90DF91CF911F910F91FF9036
:102A3000EF90DF90CF9008958091D70081608093D0
:102A4000D70080EA8093D80089B5806189BD89B5B7
:102A5000826089BD09B400FEFDCF61E070E080E0D6
:102A600090E00E94EB118091D8008F7C8061809370
:102A7000D8008091E000807F8093E0000895CF939C
:102A8000DF931F92CDB7DEB71982CE0101960E9467
:102A9000DA120E944E14BE016F5F7F4F0E948213B4
:102AA00089810F90DF91CF9108952FB7FC0120838A
:102AB000F89467706093E9000895CF93DF931F92B5
:102AC000CDB7DEB7682FCE0101960E9455158091D3
:102AD000F20099819FBF0F90DF91CF910895EF92FF
:102AE000FF920F931F93CF93DF931F92CDB7DEB763
:102AF0009091A105992311F057FF03C08FEF9FEF2D
:102B00002AC08A017B01682FCE0101960E945515CB
:102B10008091F20090E0A801801791070CF4AC01BD
:102B2000842FF70194E6815038F028989093A205FD
:102B30002091F1002193F7CF4115510521F08091AB
:102B4000F200882321F089818FBFCA0104C08BE67F
:102B50008093E800F8CF0F90DF91CF911F910F91F4
:102B6000FF90EF900895CF93DF931F92CDB7DEB71C
:102B700041E050E0BE016F5F7F4F0E946F150197EB
:102B800019F4898190E002C08FEF9FEF0F90DF91E1
:102B9000CF910895CF93DF931F92CDB7DEB7682F03
:102BA000CE0101960E9455159091E800892F807200
:102BB00095FF04C09091F2008FE3891B99819FBF1C
:102BC0000F90DF91CF9108956F927F928F929F9295
:102BD000AF92BF92CF92DF92EF92FF920F931F932B
:102BE000CF93DF931F92CDB7DEB7A82E6B01B42E23
:102BF000052F8091A105811103C08FEF9FEF6AC05F
:102C000080919F0580FF05C08091E00082608093E5
:102C1000E000EB2CF02E8AEF982E8A2D8072782E11
:102C20009AE3892E8A2D8074682EE114F10409F448
:102C300047C08A2D0E94CA15182F81110AC09A9484
:102C40009920D9F261E070E080E090E00E94EB1101
:102C5000ECCF90E0E816F9060CF41E2D6A2DCE019B
:102C600001960E9455158091E80085FF26C0812FAE
:102C700090E0E81AF90A772029F01150A8F0109294
:102C8000F100FBCFF601A7FE07C0115058F02491C8
:102C90002093F1003196F9CF115020F0219120932B
:102CA000F100FACFC80ED91E8091E80085FF0FC051
:102CB000E114F10411F461100AC089818FBFB5CF0E
:102CC0005D9884E68093A3058B2D902F03C080929E
:102CD000E800F3CF0F90DF91CF911F910F91FF90FC
:102CE000EF90DF90CF90BF90AF909F908F907F90AC
:102CF0006F9008951092E90010929E0510929D0524
:102D000090939C0580939B050895DF92EF92FF922C
:102D10000F931F93CF93DF93D82E8A017B01E40E8C
:102D2000F51EEB01CE15DF0571F0D7FE03C0FE01E5
:102D3000849101C088810E94B11421968111F2CF43
:102D40008FEF9FEF01C0C801DF91CF911F910F91CD
:102D5000FF90EF90DF900895BF92CF92DF92EF92B5
:102D6000FF920F931F93CF93DF936C018B01EB01C5
:102D70009BEFB92E2097C1F07E01C134D1051CF024
:102D800080E4E82EF12C8091E80082FFFCCFC8019E
:102D90008C1B9D0B6E2D8C0D9D1D0E94A414B0925A
:102DA000E800CE19DF09E6CFC801DF91CF911F916E
:102DB0000F91FF90EF90DF90CF90BF9008951F92FA
:102DC0000F920FB60F921124CF92DF92EF92FF92E3
:102DD0000F931F932F933F934F935F936F937F9323
:102DE0008F939F93AF93BF93EF93FF93CF93DF9313
:102DF000CDB7DEB76C97DEBFCDBF1092E9008091F2
:102E0000E80083FF24C168E0CE0145960E94A41427
:102E100082EF8093E8008D8987FF05C09091E800DC
:102E200090FFFCCF03C09EEF9093E800982F907620
:102E300009F0F1C09E892F89188D91110CC080383E
:102E400029F48091A0058093F10002C01092F10056
:102E50001092F100F5C0422F50E0512B913051F407
:102E60008111EEC04130510509F0EAC08091A00502
:102E70008D7F0BC0933061F48111E2C04130510568
:102E800009F0DEC08091A00582608093A005D8C0C3
:102E9000953041F48091E80080FFFCCF20682093BA
:102EA000E300CEC0963009F08CC0EB8CFC8C123065
:102EB00069F580E090E00E947A160E943F1599E043
:102EC0009E012F5F3F4F6901F901292F11922A9529
:102ED000E9F799831A8391E09E8390EA98879AEFA5
:102EE000998720919D0530919E05275F3F4F3C8338
:102EF0002B838D83C7010E947A1649E050E0B6010A
:102F000080E00E9485160E943F159AC0C7010E946A
:102F10007A160E944E14BE016B5E7F4F0E94AB1367
:102F2000009719F00CF08CC08FC0113071F48B8DAC
:102F30009C8D089719F481E080939A0580919A05F9
:102F400081112FC069E274E031C0133009F07CC0F8
:102F50008F89882349F1823029F440E868E086E4CB
:102F600094E006C0813039F440E86AE08BE394E0F5
:102F70000E94DF1463C0833009F066C00E944E14C3
:102F80008E010F5F1F4FB8010E94CA13F801019014
:102F90000020E9F73197BF01601B710B40E0C801C9
:102FA000E7CF67E174E002C06FE474E0611571057A
:102FB00009F44AC0FB01449150E080E80E94851664
:102FC0003FC0973009F440C0983021F481E08093ED
:102FD000F10036C09930A1F58370B1F5EEE0F1E073
:102FE00081E021E036E39081992361F08093E9004C
:102FF0002093EB0091919093EC003093ED008F5F64
:10300000873089F78EE78093EA001092EA008F8973
:103010008093A10515C08B8D9C8D0E947A16898D99
:10302000811105C0CE0145960E94E51207C00E949D
:103030004E14BE016B5E7F4F0E94E913882321F07E
:103040008EEF8093E80003C081E28093EB006C96E2
:103050000FB6F894DEBF0FBECDBFDF91CF91FF91C9
:10306000EF91BF91AF919F918F917F916F915F9100
:103070004F913F912F911F910F91FF90EF90DF9013
:10308000CF900F900FBE0F901F9018958093E9007E
:103090008091F200882319F08AE38093E800089574
:1030A0001F920F920FB60F9211242F933F934F93BD
:1030B0005F936F937F938F939F93AF93BF93CF93C0
:1030C000EF93FF93C091E1008091E100837F8093B3
:1030D000E100C3FF0FC01092E90081E08093EB0094
:1030E0001092EC0082E38093ED001092A10588E03D
:1030F0008093F000C2FF19C083E00E9446188091BF
:10310000A305882339F08091A30581508093A305FE
:10311000882389F18091A205882339F08091A20546
:1031200081508093A205882341F1C4FF10C0809193
:10313000E2008E7E81608093E2008091E1008F7ECC
:103140008093E10080919F058E7E806111C0C0FF59
:1031500016C08091E2008E7E80618093E2008091B3
:10316000E1008E7E8093E10080919F058E7E8160DC
:1031700080939F0504C05D9ACDCF289AD6CFFF914A
:10318000EF91CF91BF91AF919F918F917F916F916F
:103190005F914F913F912F910F900FBE0F901F9015
:1031A00018951092A1051092A00510929F050E94FB
:1031B0001C158091E1008E7E8093E1008DE080936C
:1031C000E200559A209AEEEFFFE7859194918B3FAC
:1031D0009C4D19F481E080938C0508958091E00066
:1031E0008D7F8093E0008091E00081FD08C0809198
:1031F0009F0580FF04C08091A00581FD02C080E092
:1032000008950E941C158091E00082608093E00088
:1032100081E0089508950E9427120E940A1989E901
:1032200095E00E94D1180E94B402C0E0D0E00E9454
:103230007A022097E1F30E940000F9CF0895AA1BBB
:10324000BB1B51E107C0AA1FBB1FA617B70710F091
:10325000A61BB70B881F991F5A95A9F780959095C3
:10326000BC01CD010895EE0FFF1F0590F491E02DF4
:10327000099412E0CDE3D2E004C0FE010E943319AC
:0C3280002196CE33D107C9F7F894FFCF98
:10328C0001FFFFFFFF00E100000000000000C18013
:10329C00810000004B6579626F6172642E494F208A
:1032AC006B6579626F6172642064726976657220F5
:1032BC0076302E30300000000000050300000000C6
:1032CC00D906010502050305BC0600000000D9065D
:1032DC00010502051305BC06000000005B05660530
:1032EC0002057105BC0600000000D90601050205A7
:1032FC00C505BC0600000000D90601050205CD0578
:10330C00BC0600000000D906010502050506BC0636
:10331C0000000000D90601057006C505BC060000BA
:10332C000000E60E6214000000002810E00F4F10A1
:10333C00C40F000000000E11000000007D12C4122A
:08334C00A712B7129312A4129C
:107000005FC0000078C0000076C0000074C00000BF
:1070100072C0000070C000006EC000006CC00000B4
:107020006AC0000068C0000013C5000064C0000012
:1070300062C0000060C000005EC000005CC00000D4
:107040005AC00000F7C0000056C0000054C0000045
:1070500052C0000050C000004EC000004CC00000F4
:107060004AC0000048C0000046C0000044C0000004
:1070700042C0000040C000003EC000003CC0000014
:107080003AC0000038C0000036C0000034C0000024
:1070900032C0000030C000002EC000002CC0000034
:1070A0002AC0000028C0000026C00000973EB03E65
:1070B000573FB03E573FE83E0A3F573F2A3F3C3FCD
:1070C00011241FBECFEFDAE0DEBFCDBF11E0A0E09C
:1070D000B1E0E8E3FFE702C005900D92A63CB107DE
:1070E000D9F711E0A6ECB1E001C01D92A63DB107B1
:1070F000E1F754D31FC784CF84E08093E9008091E7
:10710000E80085FD0DC08091E8008B778093E80052
:107110008091E80082FDF3CF8EB38111F9CF02C0D8
:107120008091F100089593E09093E9009091E80038
:1071300095FF03C08093F10008959091E8009E7739
:107140009093E8009091E80090FDF4CF9EB39111E8
:10715000F9CF0895F89410926F0010928100109268
:1071600085001092840081E085BF15BE0C9400005C
:1071700008953E9A46988198809A899A8898000046
:10718000799B0AC08FE19EE40197F1F700C00000EF
:10719000799B02C03E98DEDF3E9808953F9A479A59
:1071A0004BD38FE99FE00197F1F700C0000044E066
:1071B0006EE071E080EB47D38FE99FE00197F1F734
:1071C00000C0000045E064E071E080EB3CD38FE953
:1071D0009FE00197F1F700C0000042E062E071E03B
:1071E00080EB31C384B7877F84BF88E10FB6F89402
:1071F00080936000109260000FBE90E880E00FB6B0
:10720000F89490936100809361000FBE81E085BF88
:1072100082E085BFE1E6F0E0908310821092890061
:107220009AEF9093880080936F0083E080938100B1
:10723000B5DFF6C31F920F920FB60F9211242F9352
:107240008F939F93EF93FF93109285001092840089
:10725000E0E0F0E085919491019649F08091C601BB
:107260009091C70101969093C7018093C601FF9149
:10727000EF919F918F912F910F900FBE0F901F90C4
:10728000189542E061EC82E060D342E161E883E07E
:107290005CD342E160E884E058C38091CE01982F2E
:1072A0009F77913239F59091CF01903291F09132E0
:1072B00009F5813AF9F48091E800877F8093E8002E
:1072C00067E070E083E191E074D48091E8008B770F
:1072D0000FC0813279F48091E800877F8093E800C5
:1072E00067E070E083E191E0C1D48091E8008E779F
:1072F0008093E80008956F927F928F929F92AF9251
:10730000BF92CF92DF92EF92FF920F931F93CF9392
:10731000DF9384E08093E9008091E80082FF2FC230
:10732000EBDEC82F45E064E071E080EB8CD2C53421
:1073300081F48CE49DE19093C7018093C60107B668
:1073400000FCFDCFF999FECF81E180935700E895CD
:1073500003C0C43521F4D0DE8DE0E5DEE2C1CC34DB
:10736000D9F3C035C9F3C43721F484E4DCDE80E00E
:10737000F4CFC13611F489E5F0CFC13491F4BCDE0D
:10738000C82FBADE90E0880F991F2C2F30E0322FE3
:107390002227330F822B932BAA2797FDA095BA2F74
:1073A00094C1C03711F483E5D8CFC33549F4CCEB91
:1073B000D1E01C2F195F8991B6DE1C13FCCFB1C13F
:1073C000C63521F481E3AFDE80E3C7CFC33731F4A4
:1073D00087E8A9DE85E9A7DE8EE1BFCFC536B9F41F
:1073E000E0E0F0E083E095E080935700E89507B691
:1073F00000FCFDCF90935700E89507B600FCFDCF49
:10740000E058FF4FE11520E7F20771F7A5CFC2372B
:1074100019F4E1E0F0E00EC0C63419F4E0E0F0E069
:1074200009C0CE3419F4E3E0F0E004C0C13539F40A
:10743000E2E0F0E089E08093570084918ECFC2367D
:1074400031F489E570DE80E06EDE80E886CFC234FC
:1074500019F0C73609F0D1C01092C7011092C601C9
:107460004BDE082F49DED82F47DE182F8BEB810F1C
:10747000823010F08FE371CF2D2F30E0302B10923F
:107480006F00C73609F043C081E180935700E8954B
:10749000E90100E0BB24B394209709F4AAC0C0908E
:1074A000C801D090C901E090CA01F090CB01163418
:1074B000B9F4E02FF0E0EC29FD29849134DE0023BB
:1074C00069F082E0C80ED11CE11CF11CC092C80119
:1074D000D092C901E092CA01F092CB010B2515C0F0
:1074E000D701C601B695A795979587950DD51BDE53
:1074F000E2E0CE0ED11CE11CF11CC092C801D0927A
:10750000C901E092CA01F092CB012197C5CF8090CA
:10751000C8019090C901A090CA01B090CB01163467
:1075200041F483E0F40180935700E89507B600FC2E
:10753000FDCFE901712C00E066246394209709F4E3
:107540004CC0163431F5002301F1C090C801D09031
:10755000C901E090CA01F090CB01CEDD272D30E0CB
:10756000382BF601090160925700E8951124F2E0EA
:10757000CF0ED11CE11CF11CC092C801D092C901F0
:10758000E092CA01F092CB0102C0B6DD782E06254A
:1075900022C0B2DD682F8091C8019091C901A091ED
:1075A000CA01B091CB01B695A79597958795B4D4AC
:1075B0008091C8019091C901A091CA01B091CB01FD
:1075C0000296A11DB11D8093C8019093C901A0939B
:1075D000CA01B093CB012197B1CF163441F485E0B5
:1075E000F40180935700E89507B600FCFDCF8DE0CD
:1075F0009ADD82E080936F0094C0C33471F4C0912F
:10760000C801D091C90178DD90E021E0FE010C01B4
:1076100020935700E89511249FCEC33601F5C09002
:10762000C801D090C901E090CA01F090CB0164DD9F
:10763000F601E16090E021E00C0120935700E8950D
:107640001124F2E0CF0ED11CE11CF11CC092C80144
:10765000D092C901E092CA01F092CB017DCECD3625
:1076600061F4E091C801F091C90185E08093570071
:10767000E89507B600FCFDCF6FCEC23551F4E0911E
:10768000C801F091C901C591D4918D2F4CDD8C2F8B
:1076900064CEC43419F530DD682F8091C801909113
:1076A000C901A091CA01B091CB01B695A795979554
:1076B000879532D48091C8019091C901A091CA01E7
:1076C000B091CB010296A11DB11D8093C80190938A
:1076D000C901A093CA01B093CB013ECEC436F1F4E8
:1076E000C090C801D090C901E090CA01F090CB01D0
:1076F000D701C601B695A7959795879505D413DD53
:1077000022E0C20ED11CE11CF11CC092C801D09233
:10771000C901E092CA01F092CB0103C0CB3109F05C
:10772000A9CE45E069E071E080EB8DD083E08093E5
:10773000E9009091E8008091E8008E778093E8005E
:1077400095FD11C08091E80080FD04C08EB38111C9
:10775000F9CF15C08091E8008E778093E80003C0D0
:107760008EB3882361F08091E80080FFF9CF84E038
:107770008093E9008091E8008B778093E800DF91A7
:10778000CF911F910F91FF90EF90DF90CF90BF901E
:10779000AF909F908F907F906F90089520910008F8
:1077A00030910108109201081092000884B714BEAD
:1077B00098E10FB6F89490936000109260000FBEAD
:1077C00080FF09C0E0E0F0E0459154914F3F5F4FEA
:1077D00011F0C0DC12C081FD10C083FF0DC080918C
:1077E0000001909101012817390731F0E0E0F0E045
:1077F00085919491019669F7BCDCF4DC7894109241
:10780000C7011092C60180911201882361F073DDD7
:1078100064D38091C6019091C70181349F4198F350
:1078200010921201F0CF8091E00081608093E0001F
:1078300091DC80E090E0089584E08093BC0080E1DA
:107840008093B800089594EA9093BC009091BC0096
:1078500097FFFCCF9091B9009830C9F58E7F809347
:10786000BB0084E88093BC008091BC0087FFFCCF04
:107870008091B900883159F550E0FB0184E841302E
:10788000510581F091919093BB008093BC00909141
:10789000BC0097FFFCCF9091B9004150510998323C
:1078A00071F315C080818093BB0084E88093BC0095
:1078B0008091BC0087FFFCCF8091B900803339F400
:1078C00084E98093BC0090E081E08927089584E9F1
:1078D0008093BC0091E0F8CF292F30E022303105B1
:1078E00059F02330310569F02130310531F582E15D
:1078F00090E02AEA31E025C08EE390E02CE631E00A
:1079000020C0882359F0813071F0823089F08330B3
:10791000A1F48EE090E02AE131E013C084E090E031
:1079200028E631E00EC082E290E024E431E009C0B4
:1079300088E190E02AE231E004C080E090E020E0BD
:1079400030E0FA013183208308958093E900EBEE63
:10795000F0E0808181608083EDEEF0E01082609342
:10796000EC0040838091EE00881F8827881F0895CF
:107970008091CE0187FF0FC08091E80082FD04C096
:107980008EB38111F9CF10C08091E8008B770AC0C7
:107990008EB3882349F08091E80080FFF9CF809171
:1079A000E8008E778093E80008950F931F93CF939C
:1079B000DF9341D048D0C8EDD0E088818F778883AD
:1079C00088818068888388818F7D888319BC1EBAEE
:1079D0001092CC0100EE10E0F80180818B7F808353
:1079E00088818160888342E060E080E0AEDFE1EE84
:1079F000F0E080818E7F8083E2EEF0E08081816024
:107A00008083808188608083F80180818E7F80837D
:107A1000888180618883DF91CF911F910F910895B4
:107A2000E7EDF0E08081816080838AE482BF81E0BD
:107A30008093CD01BACFE8EDF0E080818E7F808326
:107A40001092E20008951092DA001092E100089579
:107A50001F920F920FB60F9211242F933F934F93C3
:107A60005F936F937F938F939F93AF93BF93EF93A6
:107A7000FF938091DA0080FF1BC08091D80080FFC7
:107A800017C08091DA008E7F8093DA008091D90050
:107A900080FF0BC080E189BD82E189BD09B400FE91
:107AA000FDCF81E08EBB18D203C019BC1EBA14D220
:107AB0008091E10080FF17C08091E20080FF13C039
:107AC0008091E2008E7F8093E2008091E2008061ED
:107AD0008093E2008091D80080628093D80019BC26
:107AE00085E08EBBF9D18091E10084FF2CC08091AC
:107AF000E20084FF28C080E189BD82E189BD09B42C
:107B000000FEFDCF8091D8008F7D8093D8008091BA
:107B1000E1008F7E8093E1008091E2008F7E809370
:107B2000E2008091E20081608093E2008091CC01CC
:107B3000811106C08091E30087FD02C081E001C091
:107B400084E08EBBC9D18091E10083FF21C0809188
:107B5000E20083FF1DC08091E100877F8093E100F8
:107B600082E08EBB1092CC018091E1008E7F8093E9
:107B7000E1008091E2008E7F8093E2008091E2003C
:107B800080618093E20042E060E080E0DEDEA4D12C
:107B9000FF91EF91BF91AF919F918F917F916F91E5
:107BA0005F914F913F912F910F900FBE0F901F90BB
:107BB00018952091D4013091D5012617370748F048
:107BC0006115710539F42091E8002E772093E800C3
:107BD00001C0B90140E061157105A1F12EB3222366
:107BE00009F440C0253009F43FC02091E80023FD8E
:107BF00037C02091E80022FD2DC02091E80020FF31
:107C0000EACF4091F3002091F20030E0342BFC01E8
:107C1000CF016115710559F02830310540F481918B
:107C20008093F100615071092F5F3F4FF1CF41E028
:107C30002830310509F040E02091E8002E772093AC
:107C4000E800C9CF4111CACF05C08EB3882351F0D7
:107C5000853051F08091E80082FFF7CF80E00895F1
:107C600081E0089582E0089583E00895611571052B
:107C700029F42091E8002B772093E800FC0161159E
:107C8000710531F18EB3882359F1853059F1809116
:107C9000E80083FD23C08091E80082FFF0CF2091AF
:107CA000F3008091F20090E0922B892B31F08091CB
:107CB000F10081936150710991F78091E8008B7711
:107CC0008093E800DCCF8EB3882351F0853051F0EB
:107CD0008091E80080FFF7CF80E0089581E008956B
:107CE00082E0089583E008950F931F93CF93DF936D
:107CF00000D0CDB7DEB7EEECF1E088E08E0F9091CA
:107D0000F10091938E13FBCFC8DA8091E80083FFD6
:107D1000CEC08091CE019091CF01492F50E04A30E2
:107D2000510508F0C4C0FA01EA5AF74CE7C082389E
:107D300009F0BDC08091D20187708093E9008091E5
:107D4000EB001092E9009091E800977F9093E80093
:107D500085FB882780F98093F1001092F10085C09F
:107D6000282F2D7F09F0A3C0823009F0A0C0809198
:107D7000D001811127C08091D201877009F497C08A
:107D80008093E9002091EB0020FF1CC0933021F488
:107D90008091EB00806214C09091EB009061909311
:107DA000EB0021E030E0A90102C0440F551F8A9585
:107DB000E2F74093EA001092EA008091EB008860BD
:107DC0008093EB001092E9008091E800877F50C01B
:107DD00081116DC01091D0011F770FB7F894809179
:107DE000E800877F8093E800C3DD8091E80080FF92
:107DF000FCCF8091E3008078812B8093E300806842
:107E00008093E300111102C082E001C083E08EBBC9
:107E10000FBF4DC08058823008F049C0AE014F5F9F
:107E20005F4F6091D2018091D0019091D10154DDDA
:107E3000BC01892B09F43BC09091E800977F909397
:107E4000E80089819A81B5DE8091E8008B77809384
:107E5000E8002DC0803859F58091E800877F809335
:107E6000E8008091CC018093F1008091E8008E774A
:107E70008093E8007DDD1BC0811119C09091D00175
:107E80009230A8F48091E800877F8093E800909377
:107E9000CC016EDD8091CC01811106C08091E300A0
:107EA00087FD02C081E001C084E08EBBEAD98091E9
:107EB000E80083FF0AC08091EB0080628093EB00B2
:107EC0008091E800877F8093E8000F900F90DF910A
:107ED000CF911F910F9108950895CF938EB388236A
:107EE00059F0C091E900C7701092E9008091E80054
:107EF00083FDFADEC093E900CF910895EE0FFF1FD6
:107F00000590F491E02D0994F999FECF92BD81BDC1
:107F1000F89A992780B50895262FF999FECF1FBAB0
:107F200092BD81BD20BD0FB6F894FA9AF99A0FBEA2
:087F300001960895F894FFCFBB
:107F38007777060504030000FF0403FF0000030031
:107F4800000001000000000000080E036B00620042
:107F580069006F0030003100000018034B00650015
:107F6800790062006F0061007200640069006F00B0
:107F78002000000022034D006F00640065006C00C3
:107F880020003000310020002000200020002000C8
:107F980020002000200000000403090409023E001C
:107FA80002010080320904000001020201000524D8
:107FB80000100104240204052406000107058203B9
:107FC8000800FF09040100020A0000000705040276
:107FD80010000107058302100001120110010200C0
:107FE800000809120023010002010301434154451E
:067FF80052494E41000059
:040000030000700089
:00000001FF
